:100000000C9434000C9453030C9493030C945100FF
:100010000C9451000C9451000C9451000C9451001C
:100020000C9451000C9451000C9451000C94D30387
:100030000C9451000C9451000C9451000C945100FC
:100040000C9451000C9451000C9451000C945100EC
:100050000C9451000C9451000C9451000C945100DC
:100060000C9451000C94510011241FBECFEFD8E026
:10007000DEBFCDBF11E0A0E0B1E0E0E9F8E002C0F2
:1000800005900D92AA32B107D9F721E0AAE2B1E0BA
:1000900001C01D92A733B207E1F70E9453020C94EE
:1000A00046040C940000672B09F073C08A30910558
:1000B00011F4289808958B30910511F4299808952A
:1000C0008C30910511F42A9808958D30910511F422
:1000D0002B9808958E30910511F42C9808958F3047
:1000E000910511F42D9808958031910511F42E9801
:1000F00008958131910511F42F9808958431910567
:1001000011F4409808958531910511F441980895AE
:100110008631910511F4429808958731910511F4C3
:10012000439808958831910511F4449808958931D0
:10013000910511F4459808958A31910511F4469876
:1001400008958E31910511F4589808958F319105D5
:1001500011F4599808958032910511F45A98089530
:100160008132910511F45B9808958232910511F462
:100170005C9808958332910511F45D980895843256
:10018000910511F45E980895859709F073C05F9802
:1001900008958A30910511F4289A08958B309105BD
:1001A00011F4299A08958C30910511F42A9A089532
:1001B0008D30910511F42B9A08958E30910511F42C
:1001C0002C9A08958F30910511F42D9A089580315D
:1001D000910511F42E9A08958131910511F42F9A09
:1001E00008958431910511F4409A0895853191055F
:1001F00011F4419A08958631910511F4429A0895B7
:100200008731910511F4439A08958831910511F4CD
:10021000449A08958931910511F4459A08958A31D7
:10022000910511F4469A08958E31910511F4589A6A
:1002300008958F31910511F4599A089580329105EE
:1002400011F45A9A08958132910511F45B9A089538
:100250008232910511F45C9A08958332910511F46C
:100260005D9A08958432910511F45E9A08958597F8
:1002700009F45F9A0895CF93C82F80FF07C061E00B
:1002800070E082E290E00E94530006C060E070E0FF
:1002900082E290E00E945300C1FF07C061E070E07D
:1002A00083E290E00E94530006C060E070E083E2C9
:1002B00090E00E945300C2FF07C061E070E084E25A
:1002C00090E00E94530006C060E070E084E290E09D
:1002D0000E945300C3FF07C061E070E085E290E038
:1002E0000E94530006C060E070E085E290E00E944A
:1002F0005300CF910895CF93C82F60E070E08AE05B
:1003000090E00E9453008C2F0E943B0161E070E05E
:100310008BE090E00E9453008FE99FE00197F1F796
:1003200000C0000060E070E08BE090E00E945300AD
:100330008FE99FE00197F1F700C00000CF91089589
:1003400080E00E947B0181E00E947B010895CF93B1
:10035000C62F813059F480E8860F82958F700E94F5
:100360007B018C2F8F700E947B010CC0823051F476
:1003700080EC860F82958F700E947B018C2F8F708E
:100380000E947B01CF91089580E00E943B012FEFF6
:1003900089EF90E0215080409040E1F700C00000DC
:1003A00083E00E947B018FE19EE40197F1F700C09A
:1003B000000083E00E947B018FED9BEA0197F1F73B
:1003C00000C0000083E00E947B0182E00E947B016C
:1003D00082E00E947B0188E00E947B0180E00E9415
:1003E0007B018CE00E947B0180E00E947B0186E023
:1003F0000E947B010895CF93C82F61E070E08AE0EE
:1004000090E00E9453008C2F82958F700E943B01D8
:1004100061E070E08BE090E00E9453008FE99FE084
:100420000197F1F700C0000060E070E08BE090E021
:100430000E9453008FE99FE00197F1F700C0000090
:100440008C2F8F700E943B0161E070E08BE090E0A8
:100450000E9453008FE99FE00197F1F700C0000070
:1004600060E070E08BE090E00E9453008FE99FE035
:100470000197F1F700C00000CF910895CF93DF936B
:10048000EC018881882331F021960E94FB0189913B
:100490008111FBCFDF91CF91089585B1837E85B91E
:1004A00008952B9A089580EF8AB98FEF84B910923E
:1004B0002B0110922A018FEF9FEF90938900809378
:1004C00088001092850010928400E1E8F0E08081BD
:1004D00088608083AFE6B0E08C9182608C938081ED
:1004E000856080835A9A5B9AE9E6F0E080818160BA
:1004F0008083E89A808184608083E99A78940E945E
:10050000C4010E94A00161E081E00E94A70180E097
:1005100091E00E943E020E94510217E00F2EF8EE79
:100520008F2EF3E09F2EA12CB12CF02DDAE0C0E04D
:100530000F2EFAE0CF2ED12CE12CF12CF02D2FEF45
:1005400081EE94E0215080409040E1F700C000002F
:1005500080912A01882399F340913301509134010D
:100560006091350170913601DB01CA01072E7AE0F6
:10057000880F991FAA1FBB1F7A95D1F7702D65FFB1
:1005800003C00F96A11DB11D689413F8B595A795EA
:10059000979587951694D1F780932F01909330010A
:1005A000A0933101B09332010E94A0010E94510238
:1005B00080912A01813041F461E00E94A70187E027
:1005C00091E00E943E0208C061E081E00E94A70124
:1005D00083E191E00E943E0261E082E00E94A70177
:1005E0008FE191E00E943E0210932E0160912F0155
:1005F000709130018091310190913201A5019401F7
:100600000E94050420932F01309330014093310163
:1006100050933201D0932C01C0932D016D2F82E0B5
:100620000E94A70160912F017091300180913101EA
:1006300090913201A70196010E94050480E3860F84
:100640000E94FB0160912F01709130018091310176
:1006500090913201A70196010E94050420932F0179
:1006600030933001409331015093320160912C015D
:1006700070912D016150710970932D0160932C01CF
:1006800080912E01282F30E06217730744F664E052
:10069000680F82E00E94A70186E291E00E943E027C
:1006A00010922A014CCF1F920F920FB60F92112475
:1006B0008F939F93AF93BF93EF93FF9380912B0101
:1006C00081110DC01092850010928400E1E8F0E0E5
:1006D00080818560808381E080932B0118C0E4E8ED
:1006E000F0E080819181A0E0B0E0809333019093AD
:1006F0003401A0933501B0933601A1E8B0E08C91AC
:1007000085608C931182108281E080932A01E898A1
:10071000FF91EF91BF91AF919F918F910F900FBE7D
:100720000F901F9018951F920F920FB60F921124E1
:100730008F939F93AF93BF93EF93FF9380912B0180
:1007400081110DC01092850010928400E1E8F0E064
:1007500080818560808381E080932B0118C0E4E86C
:10076000F0E080819181A0E0B0E08093330190932C
:100770003401A0933501B0933601A1E8B0E08C912B
:1007800085608C931182108282E080932A01E9981F
:10079000FF91EF91BF91AF919F918F910F900FBEFD
:1007A0000F901F9018951F920F920FB60F92112461
:1007B0002F933F934F935F936F937F938F939F9369
:1007C000AF93BF93EF93FF9310922B0110923301DD
:1007D000109234011092350110923601E19AE09A9C
:1007E000E89AE99A0E944D02FF91EF91BF91AF9173
:1007F0009F918F917F916F915F914F913F912F9139
:100800000F900FBE0F901F901895052E97FB1EF4AA
:1008100000940E941C0457FD07D00E94240407FC8A
:1008200003D04EF40C941C045095409530952195BE
:100830003F4F4F4F5F4F089590958095709561950C
:100840007F4F8F4F9F4F0895A1E21A2EAA1BBB1B0B
:10085000FD010DC0AA1FBB1FEE1FFF1FA217B3078C
:10086000E407F50720F0A21BB30BE40BF50B661FA2
:10087000771F881F991F1A9469F760957095809566
:1008800090959B01AC01BD01CF010895F894FFCF75
:100890005265616479210046697273743A20434855
:1008A00020320046697273743A2043482031005464
:0A08B000696D653A20006D730000C9
:00000001FF
