:100000000C9434000C94C1030C94FF030C94510025
:100010000C9451000C9451000C9451000C9451001C
:100020000C9451000C9451000C9451000C943D041C
:100030000C9451000C9451000C9451000C945100FC
:100040000C9451000C9451000C9451000C945100EC
:100050000C9451000C9451000C9451000C945100DC
:100060000C9451000C94510011241FBECFEFD8E026
:10007000DEBFCDBF11E0A0E0B1E0E4E6F9E002C0F0
:1000800005900D92A234B107D9F721E0A2E4B1E0C6
:1000900001C01D92A035B207E1F70E9444020C9402
:1000A000B0040C940000672B09F073C08A309105EE
:1000B00011F4289808958B30910511F4299808952A
:1000C0008C30910511F42A9808958D30910511F422
:1000D0002B9808958E30910511F42C9808958F3047
:1000E000910511F42D9808958031910511F42E9801
:1000F00008958131910511F42F9808958431910567
:1001000011F4409808958531910511F441980895AE
:100110008631910511F4429808958731910511F4C3
:10012000439808958831910511F4449808958931D0
:10013000910511F4459808958A31910511F4469876
:1001400008958E31910511F4589808958F319105D5
:1001500011F4599808958032910511F45A98089530
:100160008132910511F45B9808958232910511F462
:100170005C9808958332910511F45D980895843256
:10018000910511F45E980895859709F073C05F9802
:1001900008958A30910511F4289A08958B309105BD
:1001A00011F4299A08958C30910511F42A9A089532
:1001B0008D30910511F42B9A08958E30910511F42C
:1001C0002C9A08958F30910511F42D9A089580315D
:1001D000910511F42E9A08958131910511F42F9A09
:1001E00008958431910511F4409A0895853191055F
:1001F00011F4419A08958631910511F4429A0895B7
:100200008731910511F4439A08958831910511F4CD
:10021000449A08958931910511F4459A08958A31D7
:10022000910511F4469A08958E31910511F4589A6A
:1002300008958F31910511F4599A089580329105EE
:1002400011F45A9A08958132910511F45B9A089538
:100250008232910511F45C9A08958332910511F46C
:100260005D9A08958432910511F45E9A08958597F8
:1002700009F45F9A0895CF93C82F80FF03C061E00F
:1002800070E002C060E070E082E290E00E94530003
:10029000C1FF03C061E070E002C060E070E083E293
:1002A00090E00E945300C2FF03C061E070E002C012
:1002B00060E070E084E290E00E945300C3FF03C05E
:1002C00061E070E002C060E070E085E290E0CF9114
:1002D0000C945300CF93C82F60E070E08AE090E068
:1002E0000E9453008C2F0E943B0161E070E08BE084
:1002F00090E00E9453008FE99FE00197F1F700C062
:10030000000060E070E08BE090E00E9453008FE915
:100310009FE00197F1F700C00000CF910895CF93BF
:10032000C82F80E88C0F82958F700E946A018C2FF5
:100330008F70CF910C946A0180E00E946A0181E085
:100340000C946A01CF93813021F4862FCF910C94C5
:100350008F01823061F4C62F80EC860F82958F70FA
:100360000E946A018C2F8F70CF910C946A01CF91FB
:10037000089580E00E943B012FEF89EF90E021502B
:1003800080409040E1F700C0000083E00E946A01D5
:100390008FE19EE40197F1F700C0000083E00E9426
:1003A0006A018FED9BEA0197F1F700C0000083E03E
:1003B0000E946A0182E00E946A0182E00E946A0152
:1003C00088E00E946A0180E00E946A018CE00E943D
:1003D0006A0180E00E946A0186E00C946A01CF9372
:1003E000C82F61E070E08AE090E00E9453008C2FFB
:1003F00082958F700E943B0161E070E08BE090E09D
:100400000E9453008FE99FE00197F1F700C00000C0
:1004100060E070E08BE090E00E9453008FE99FE085
:100420000197F1F700C000008C2F8F700E943B01F4
:1004300061E070E08BE090E00E9453008FE99FE064
:100440000197F1F700C0000060E070E08BE090E001
:100450000E9453008FE99FE00197F1F700C0000070
:10046000CF910895CF93DF93EC018991882319F000
:100470000E94EF01FACFDF91CF91089585B1837E7D
:1004800085B908952B9A089580EF8AB98FED84B9C4
:10049000109243011092420180E095EB9093890005
:1004A00080938800109285001092840080918100D2
:1004B00088608093810080916F00826080936F00DC
:1004C000809181008560809381005A9A5B9A0E9496
:1004D000B9010E949C0181E00E948F0193B181E0EB
:1004E000292F207295FF80E080934F018091690051
:1004F0002223A9F081608093690080916900826065
:100500008093690080916900846080936900809184
:10051000690088608093690080E091E014C08E7F5C
:100520008093690080916900826080936900809166
:1005300069008B7F80936900809169008860809357
:1005400069008CE091E00E943202E89AE99A78947E
:1005500061E082E00E94A20189E191E00E94320202
:100560000E94420217E038EE832E33E0932EA12C36
:10057000B12CCAE0D0E04AE0C42ED12CE12CF12C01
:1005800021E030E01D9902C020E030E080914F0171
:1005900090E02817390709F451C081E01D9B80E0E5
:1005A00080934F010E949C010E94420281E00E94C0
:1005B0008F0180914F018823B9F08091690081609B
:1005C00080936900809169008260809369008091C6
:1005D00069008460809369008091690088608093DD
:1005E000690080E091E016C0809169008E7F809361
:1005F0006900809169008260809369008091690040
:100600008B7F809369008091690088608093690086
:100610008CE091E00E9432021092850010928400DA
:100620001092430110924B0110924C0110924D0117
:1006300010924E01E19AE09AE89AE99A2FEF81EE42
:1006400094E0215080409040E1F700C0000080918C
:100650004201882309F494CF80914B0190914C0181
:10066000A0914D01B0914E0126E0880F991FAA1F5D
:10067000BB1F2A95D1F78093470190934801A0931F
:100680004901B0934A010E949C010E94420280915C
:100690004201813029F40E948F0180E291E005C07F
:1006A00081E00E948F018CE291E00E94320261E0C1
:1006B00082E00E94A20188E391E00E94320210933E
:1006C00046016091470170914801809149019091E4
:1006D0004A01A50194010E946F04209347013093C1
:1006E00048014093490150934A01D0934501C0937A
:1006F0004401809146016091440170914501282F89
:1007000030E0621773078CF182E00E94A2016091D1
:100710004701709148018091490190914A01A701D8
:1007200096010E946F0480E3860F0E94EF016091A2
:100730004701709148018091490190914A01A701B8
:1007400096010E946F042093470130934801409323
:10075000490150934A0180914401909145010197CC
:100760009093450180934401C4CF64E0680F82E018
:100770000E94A2018FE391E00E9432021092420196
:10078000FFCE1F920F920FB60F9211248F939F935B
:10079000AF93BF938091430181110DC010928500EA
:1007A000109284008091810085608093810081E0B7
:1007B000809343011AC08091840090918500A0E04D
:1007C000B0E080934B0190934C01A0934D01B09306
:1007D0004E01809181008560809381001092850098
:1007E0001092840081E080934201E898BF91AF911C
:1007F0009F918F910F900FBE0F901F9018951F9291
:100800000F920FB60F9211248F939F93AF93BF93C4
:100810008091430181110DC01092850010928400D7
:100820008091810085608093810081E08093430105
:100830001AC08091840090918500A0E0B0E0809380
:100840004B0190934C01A0934D01B0934E018091C8
:100850008100856080938100109285001092840051
:1008600082E080934201E998BF91AF919F918F916F
:100870000F900FBE0F901F9018951F920F920FB6FA
:100880000F9211242F933F934F935F936F937F9316
:100890008F939F93AF93BF93EF93FF931092430176
:1008A00010924B0110924C0110924D0110924E018A
:1008B000E19AE09AE89AE99A0E943E02FF91EF914C
:1008C000BF91AF919F918F917F916F915F914F9168
:1008D0003F912F910F900FBE0F901F901895052EEE
:1008E00097FB1EF400940E94860457FD07D00E94D7
:1008F0008E0407FC03D04EF40C948604509540956A
:10090000309521953F4F4F4F5F4F089590958095BB
:10091000709561957F4F8F4F9F4F0895A1E21A2EDA
:10092000AA1BBB1BFD010DC0AA1FBB1FEE1FFF1F93
:10093000A217B307E407F50720F0A21BB30BE40BE3
:10094000F50B661F771F881F991F1A9469F760952A
:100950007095809590959B01AC01BD01CF010895E4
:04096000F894FFCF39
:10096400526973696E6720456467650046616C6C03
:10097400696E67204564676500526561647921008A
:1009840046697273743A2043482032004669727390
:10099400743A20434820310054696D653A20006D53
:0209A4007300DE
:00000001FF
